{
  "_format": "hh-sol-artifact-1",
  "contractName": "ImperialToken",
  "sourceName": "contracts/ImperialToken.sol",
  "abi": [
    {
      "inputs": [],
      "stateMutability": "nonpayable",
      "type": "constructor"
    },
    {
      "anonymous": false,
      "inputs": [
        {
          "indexed": true,
          "internalType": "address",
          "name": "owner",
          "type": "address"
        },
        {
          "indexed": true,
          "internalType": "address",
          "name": "approved",
          "type": "address"
        },
        {
          "indexed": true,
          "internalType": "uint256",
          "name": "tokenId",
          "type": "uint256"
        }
      ],
      "name": "Approval",
      "type": "event"
    },
    {
      "anonymous": false,
      "inputs": [
        {
          "indexed": true,
          "internalType": "address",
          "name": "owner",
          "type": "address"
        },
        {
          "indexed": true,
          "internalType": "address",
          "name": "operator",
          "type": "address"
        },
        {
          "indexed": false,
          "internalType": "bool",
          "name": "approved",
          "type": "bool"
        }
      ],
      "name": "ApprovalForAll",
      "type": "event"
    },
    {
      "anonymous": false,
      "inputs": [
        {
          "indexed": true,
          "internalType": "address",
          "name": "sender",
          "type": "address"
        },
        {
          "indexed": false,
          "internalType": "uint256",
          "name": "tokenId",
          "type": "uint256"
        }
      ],
      "name": "NewTokenEvent",
      "type": "event"
    },
    {
      "anonymous": false,
      "inputs": [
        {
          "indexed": true,
          "internalType": "address",
          "name": "from",
          "type": "address"
        },
        {
          "indexed": true,
          "internalType": "address",
          "name": "to",
          "type": "address"
        },
        {
          "indexed": true,
          "internalType": "uint256",
          "name": "tokenId",
          "type": "uint256"
        }
      ],
      "name": "Transfer",
      "type": "event"
    },
    {
      "inputs": [
        {
          "internalType": "address",
          "name": "to",
          "type": "address"
        },
        {
          "internalType": "uint256",
          "name": "tokenId",
          "type": "uint256"
        }
      ],
      "name": "approve",
      "outputs": [],
      "stateMutability": "nonpayable",
      "type": "function"
    },
    {
      "inputs": [
        {
          "internalType": "address",
          "name": "owner",
          "type": "address"
        }
      ],
      "name": "balanceOf",
      "outputs": [
        {
          "internalType": "uint256",
          "name": "",
          "type": "uint256"
        }
      ],
      "stateMutability": "view",
      "type": "function"
    },
    {
      "inputs": [
        {
          "internalType": "uint256",
          "name": "tokenId",
          "type": "uint256"
        }
      ],
      "name": "getApproved",
      "outputs": [
        {
          "internalType": "address",
          "name": "",
          "type": "address"
        }
      ],
      "stateMutability": "view",
      "type": "function"
    },
    {
      "inputs": [],
      "name": "getTotalSupply",
      "outputs": [
        {
          "internalType": "uint256",
          "name": "",
          "type": "uint256"
        }
      ],
      "stateMutability": "view",
      "type": "function"
    },
    {
      "inputs": [
        {
          "internalType": "address",
          "name": "owner",
          "type": "address"
        },
        {
          "internalType": "address",
          "name": "operator",
          "type": "address"
        }
      ],
      "name": "isApprovedForAll",
      "outputs": [
        {
          "internalType": "bool",
          "name": "",
          "type": "bool"
        }
      ],
      "stateMutability": "view",
      "type": "function"
    },
    {
      "inputs": [],
      "name": "makeAnNFT",
      "outputs": [],
      "stateMutability": "nonpayable",
      "type": "function"
    },
    {
      "inputs": [],
      "name": "name",
      "outputs": [
        {
          "internalType": "string",
          "name": "",
          "type": "string"
        }
      ],
      "stateMutability": "view",
      "type": "function"
    },
    {
      "inputs": [
        {
          "internalType": "uint256",
          "name": "tokenId",
          "type": "uint256"
        }
      ],
      "name": "ownerOf",
      "outputs": [
        {
          "internalType": "address",
          "name": "",
          "type": "address"
        }
      ],
      "stateMutability": "view",
      "type": "function"
    },
    {
      "inputs": [
        {
          "internalType": "address",
          "name": "from",
          "type": "address"
        },
        {
          "internalType": "address",
          "name": "to",
          "type": "address"
        },
        {
          "internalType": "uint256",
          "name": "tokenId",
          "type": "uint256"
        }
      ],
      "name": "safeTransferFrom",
      "outputs": [],
      "stateMutability": "nonpayable",
      "type": "function"
    },
    {
      "inputs": [
        {
          "internalType": "address",
          "name": "from",
          "type": "address"
        },
        {
          "internalType": "address",
          "name": "to",
          "type": "address"
        },
        {
          "internalType": "uint256",
          "name": "tokenId",
          "type": "uint256"
        },
        {
          "internalType": "bytes",
          "name": "_data",
          "type": "bytes"
        }
      ],
      "name": "safeTransferFrom",
      "outputs": [],
      "stateMutability": "nonpayable",
      "type": "function"
    },
    {
      "inputs": [
        {
          "internalType": "address",
          "name": "operator",
          "type": "address"
        },
        {
          "internalType": "bool",
          "name": "approved",
          "type": "bool"
        }
      ],
      "name": "setApprovalForAll",
      "outputs": [],
      "stateMutability": "nonpayable",
      "type": "function"
    },
    {
      "inputs": [
        {
          "internalType": "bytes4",
          "name": "interfaceId",
          "type": "bytes4"
        }
      ],
      "name": "supportsInterface",
      "outputs": [
        {
          "internalType": "bool",
          "name": "",
          "type": "bool"
        }
      ],
      "stateMutability": "view",
      "type": "function"
    },
    {
      "inputs": [],
      "name": "symbol",
      "outputs": [
        {
          "internalType": "string",
          "name": "",
          "type": "string"
        }
      ],
      "stateMutability": "view",
      "type": "function"
    },
    {
      "inputs": [
        {
          "internalType": "uint256",
          "name": "tokenId",
          "type": "uint256"
        }
      ],
      "name": "tokenURI",
      "outputs": [
        {
          "internalType": "string",
          "name": "",
          "type": "string"
        }
      ],
      "stateMutability": "view",
      "type": "function"
    },
    {
      "inputs": [
        {
          "internalType": "address",
          "name": "from",
          "type": "address"
        },
        {
          "internalType": "address",
          "name": "to",
          "type": "address"
        },
        {
          "internalType": "uint256",
          "name": "tokenId",
          "type": "uint256"
        }
      ],
      "name": "transferFrom",
      "outputs": [],
      "stateMutability": "nonpayable",
      "type": "function"
    }
  ],
  "bytecode": "0x608060405260405180610160016040528061012f8152602001620034d961012f91396008908051906020019062000038929190620000ed565b503480156200004657600080fd5b506040518060400160405280600d81526020017f496d70657269616c546f6b656e000000000000000000000000000000000000008152506040518060400160405280600381526020017f494d5000000000000000000000000000000000000000000000000000000000008152508160009080519060200190620000cb929190620000ed565b508060019080519060200190620000e4929190620000ed565b50505062000202565b828054620000fb906200019d565b90600052602060002090601f0160209004810192826200011f57600085556200016b565b82601f106200013a57805160ff19168380011785556200016b565b828001600101855582156200016b579182015b828111156200016a5782518255916020019190600101906200014d565b5b5090506200017a91906200017e565b5090565b5b80821115620001995760008160009055506001016200017f565b5090565b60006002820490506001821680620001b657607f821691505b60208210811415620001cd57620001cc620001d3565b5b50919050565b7f4e487b7100000000000000000000000000000000000000000000000000000000600052602260045260246000fd5b6132c780620002126000396000f3fe608060405234801561001057600080fd5b50600436106100f55760003560e01c806370a0823111610097578063c4e41b2211610066578063c4e41b2214610282578063c87b56dd146102a0578063e4d098e1146102d0578063e985e9c5146102da576100f5565b806370a08231146101fc57806395d89b411461022c578063a22cb4651461024a578063b88d4fde14610266576100f5565b8063095ea7b3116100d3578063095ea7b31461017857806323b872dd1461019457806342842e0e146101b05780636352211e146101cc576100f5565b806301ffc9a7146100fa57806306fdde031461012a578063081812fc14610148575b600080fd5b610114600480360381019061010f9190611f19565b61030a565b604051610121919061254b565b60405180910390f35b6101326103ec565b60405161013f9190612566565b60405180910390f35b610162600480360381019061015d9190611f6b565b61047e565b60405161016f91906124e4565b60405180910390f35b610192600480360381019061018d9190611edd565b610503565b005b6101ae60048036038101906101a99190611dd7565b61061b565b005b6101ca60048036038101906101c59190611dd7565b61067b565b005b6101e660048036038101906101e19190611f6b565b61069b565b6040516101f391906124e4565b60405180910390f35b61021660048036038101906102119190611d72565b61074d565b60405161022391906127a8565b60405180910390f35b610234610805565b6040516102419190612566565b60405180910390f35b610264600480360381019061025f9190611ea1565b610897565b005b610280600480360381019061027b9190611e26565b6108ad565b005b61028a61090f565b60405161029791906127a8565b60405180910390f35b6102ba60048036038101906102b59190611f6b565b610920565b6040516102c79190612566565b60405180910390f35b6102d8610a72565b005b6102f460048036038101906102ef9190611d9b565b610bed565b604051610301919061254b565b60405180910390f35b60007f80ac58cd000000000000000000000000000000000000000000000000000000007bffffffffffffffffffffffffffffffffffffffffffffffffffffffff1916827bffffffffffffffffffffffffffffffffffffffffffffffffffffffff191614806103d557507f5b5e139f000000000000000000000000000000000000000000000000000000007bffffffffffffffffffffffffffffffffffffffffffffffffffffffff1916827bffffffffffffffffffffffffffffffffffffffffffffffffffffffff1916145b806103e557506103e482610c81565b5b9050919050565b6060600080546103fb90612a3c565b80601f016020809104026020016040519081016040528092919081815260200182805461042790612a3c565b80156104745780601f1061044957610100808354040283529160200191610474565b820191906000526020600020905b81548152906001019060200180831161045757829003601f168201915b5050505050905090565b600061048982610ceb565b6104c8576040517f08c379a00000000000000000000000000000000000000000000000000000000081526004016104bf90612728565b60405180910390fd5b6004600083815260200190815260200160002060009054906101000a900473ffffffffffffffffffffffffffffffffffffffff169050919050565b600061050e8261069b565b90508073ffffffffffffffffffffffffffffffffffffffff168373ffffffffffffffffffffffffffffffffffffffff16141561057f576040517f08c379a000000000000000000000000000000000000000000000000000000000815260040161057690612768565b60405180910390fd5b8073ffffffffffffffffffffffffffffffffffffffff1661059e610d57565b73ffffffffffffffffffffffffffffffffffffffff1614806105cd57506105cc816105c7610d57565b610bed565b5b61060c576040517f08c379a000000000000000000000000000000000000000000000000000000000815260040161060390612668565b60405180910390fd5b6106168383610d5f565b505050565b61062c610626610d57565b82610e18565b61066b576040517f08c379a000000000000000000000000000000000000000000000000000000000815260040161066290612788565b60405180910390fd5b610676838383610ef6565b505050565b610696838383604051806020016040528060008152506108ad565b505050565b6000806002600084815260200190815260200160002060009054906101000a900473ffffffffffffffffffffffffffffffffffffffff169050600073ffffffffffffffffffffffffffffffffffffffff168173ffffffffffffffffffffffffffffffffffffffff161415610744576040517f08c379a000000000000000000000000000000000000000000000000000000000815260040161073b906126a8565b60405180910390fd5b80915050919050565b60008073ffffffffffffffffffffffffffffffffffffffff168273ffffffffffffffffffffffffffffffffffffffff1614156107be576040517f08c379a00000000000000000000000000000000000000000000000000000000081526004016107b590612688565b60405180910390fd5b600360008373ffffffffffffffffffffffffffffffffffffffff1673ffffffffffffffffffffffffffffffffffffffff168152602001908152602001600020549050919050565b60606001805461081490612a3c565b80601f016020809104026020016040519081016040528092919081815260200182805461084090612a3c565b801561088d5780601f106108625761010080835404028352916020019161088d565b820191906000526020600020905b81548152906001019060200180831161087057829003601f168201915b5050505050905090565b6108a96108a2610d57565b838361115d565b5050565b6108be6108b8610d57565b83610e18565b6108fd576040517f08c379a00000000000000000000000000000000000000000000000000000000081526004016108f490612788565b60405180910390fd5b610909848484846112ca565b50505050565b600061091b6007611326565b905090565b606061092b82610ceb565b61096a576040517f08c379a000000000000000000000000000000000000000000000000000000000815260040161096190612708565b60405180910390fd5b600060066000848152602001908152602001600020805461098a90612a3c565b80601f01602080910402602001604051908101604052809291908181526020018280546109b690612a3c565b8015610a035780601f106109d857610100808354040283529160200191610a03565b820191906000526020600020905b8154815290600101906020018083116109e657829003601f168201915b505050505090506000610a14611334565b9050600081511415610a2a578192505050610a6d565b600082511115610a5f578082604051602001610a47929190612408565b60405160208183030381529060405292505050610a6d565b610a688461134b565b925050505b919050565b6032610a7e6007611326565b1115610abf576040517f08c379a0000000000000000000000000000000000000000000000000000000008152600401610ab690612628565b60405180910390fd5b6000610acb6007611326565b90506000610ad8826113f2565b604051602001610ae8919061245b565b60405160208183030381529060405290506000600882604051602001610b0f92919061242c565b60405160208183030381529060405290506000610b5483610b2f8461159f565b604051602001610b4092919061247d565b60405160208183030381529060405261159f565b9050600081604051602001610b6991906124c2565b6040516020818303038152906040529050610b84338661175d565b610b8e858261177b565b610b9860076117ef565b3373ffffffffffffffffffffffffffffffffffffffff167f5f798757cbe0f16e7270bbb4823573adf7c4ae480b5a6428dd9be62a06048d5786604051610bde91906127a8565b60405180910390a25050505050565b6000600560008473ffffffffffffffffffffffffffffffffffffffff1673ffffffffffffffffffffffffffffffffffffffff16815260200190815260200160002060008373ffffffffffffffffffffffffffffffffffffffff1673ffffffffffffffffffffffffffffffffffffffff16815260200190815260200160002060009054906101000a900460ff16905092915050565b60007f01ffc9a7000000000000000000000000000000000000000000000000000000007bffffffffffffffffffffffffffffffffffffffffffffffffffffffff1916827bffffffffffffffffffffffffffffffffffffffffffffffffffffffff1916149050919050565b60008073ffffffffffffffffffffffffffffffffffffffff166002600084815260200190815260200160002060009054906101000a900473ffffffffffffffffffffffffffffffffffffffff1673ffffffffffffffffffffffffffffffffffffffff1614159050919050565b600033905090565b816004600083815260200190815260200160002060006101000a81548173ffffffffffffffffffffffffffffffffffffffff021916908373ffffffffffffffffffffffffffffffffffffffff160217905550808273ffffffffffffffffffffffffffffffffffffffff16610dd28361069b565b73ffffffffffffffffffffffffffffffffffffffff167f8c5be1e5ebec7d5bd14f71427d1e84f3dd0314c0f7b2291e5b200ac8c7c3b92560405160405180910390a45050565b6000610e2382610ceb565b610e62576040517f08c379a0000000000000000000000000000000000000000000000000000000008152600401610e5990612648565b60405180910390fd5b6000610e6d8361069b565b90508073ffffffffffffffffffffffffffffffffffffffff168473ffffffffffffffffffffffffffffffffffffffff161480610eaf5750610eae8185610bed565b5b80610eed57508373ffffffffffffffffffffffffffffffffffffffff16610ed58461047e565b73ffffffffffffffffffffffffffffffffffffffff16145b91505092915050565b8273ffffffffffffffffffffffffffffffffffffffff16610f168261069b565b73ffffffffffffffffffffffffffffffffffffffff1614610f6c576040517f08c379a0000000000000000000000000000000000000000000000000000000008152600401610f63906125a8565b60405180910390fd5b600073ffffffffffffffffffffffffffffffffffffffff168273ffffffffffffffffffffffffffffffffffffffff161415610fdc576040517f08c379a0000000000000000000000000000000000000000000000000000000008152600401610fd3906125e8565b60405180910390fd5b610fe7838383611805565b610ff2600082610d5f565b6001600360008573ffffffffffffffffffffffffffffffffffffffff1673ffffffffffffffffffffffffffffffffffffffff16815260200190815260200160002060008282546110429190612952565b925050819055506001600360008473ffffffffffffffffffffffffffffffffffffffff1673ffffffffffffffffffffffffffffffffffffffff16815260200190815260200160002060008282546110999190612871565b92505081905550816002600083815260200190815260200160002060006101000a81548173ffffffffffffffffffffffffffffffffffffffff021916908373ffffffffffffffffffffffffffffffffffffffff160217905550808273ffffffffffffffffffffffffffffffffffffffff168473ffffffffffffffffffffffffffffffffffffffff167fddf252ad1be2c89b69c2b068fc378daa952ba7f163c4a11628f55a4df523b3ef60405160405180910390a461115883838361180a565b505050565b8173ffffffffffffffffffffffffffffffffffffffff168373ffffffffffffffffffffffffffffffffffffffff1614156111cc576040517f08c379a00000000000000000000000000000000000000000000000000000000081526004016111c390612608565b60405180910390fd5b80600560008573ffffffffffffffffffffffffffffffffffffffff1673ffffffffffffffffffffffffffffffffffffffff16815260200190815260200160002060008473ffffffffffffffffffffffffffffffffffffffff1673ffffffffffffffffffffffffffffffffffffffff16815260200190815260200160002060006101000a81548160ff0219169083151502179055508173ffffffffffffffffffffffffffffffffffffffff168373ffffffffffffffffffffffffffffffffffffffff167f17307eab39ab6107e8899845ad3d59bd9653f200f220920489ca2b5937696c31836040516112bd919061254b565b60405180910390a3505050565b6112d5848484610ef6565b6112e18484848461180f565b611320576040517f08c379a000000000000000000000000000000000000000000000000000000000815260040161131790612588565b60405180910390fd5b50505050565b600081600001549050919050565b606060405180602001604052806000815250905090565b606061135682610ceb565b611395576040517f08c379a000000000000000000000000000000000000000000000000000000000815260040161138c90612748565b60405180910390fd5b600061139f611334565b905060008151116113bf57604051806020016040528060008152506113ea565b806113c9846113f2565b6040516020016113da929190612408565b6040516020818303038152906040525b915050919050565b6060600082141561143a576040518060400160405280600181526020017f3000000000000000000000000000000000000000000000000000000000000000815250905061159a565b600082905060005b6000821461146c57808061145590612a9f565b915050600a8261146591906128c7565b9150611442565b60008167ffffffffffffffff8111156114ae577f4e487b7100000000000000000000000000000000000000000000000000000000600052604160045260246000fd5b6040519080825280601f01601f1916602001820160405280156114e05781602001600182028036833780820191505090505b5090505b60008514611593576001826114f99190612952565b9150600a856115089190612ae8565b60306115149190612871565b60f81b818381518110611550577f4e487b7100000000000000000000000000000000000000000000000000000000600052603260045260246000fd5b60200101907effffffffffffffffffffffffffffffffffffffffffffffffffffffffffffff1916908160001a905350600a8561158c91906128c7565b94506114e4565b8093505050505b919050565b606060008251905060008114156115c85760405180602001604052806000815250915050611758565b600060036002836115d99190612871565b6115e391906128c7565b60046115ef91906128f8565b905060006020826116009190612871565b67ffffffffffffffff81111561163f577f4e487b7100000000000000000000000000000000000000000000000000000000600052604160045260246000fd5b6040519080825280601f01601f1916602001820160405280156116715781602001600182028036833780820191505090505b5090506000604051806060016040528060408152602001613252604091399050600181016020830160005b868110156117155760038101905062ffffff818a015116603f8160121c168401518060081b905060ff603f83600c1c1686015116810190508060081b905060ff603f8360061c1686015116810190508060081b905060ff603f831686015116810190508060e01b9050808452600484019350505061169c565b50600386066001811461172f576002811461173f5761174a565b613d3d60f01b600283035261174a565b603d60f81b60018303525b508484525050819450505050505b919050565b6117778282604051806020016040528060008152506119a6565b5050565b61178482610ceb565b6117c3576040517f08c379a00000000000000000000000000000000000000000000000000000000081526004016117ba906126c8565b60405180910390fd5b806006600084815260200190815260200160002090805190602001906117ea929190611bfe565b505050565b6001816000016000828254019250508190555050565b505050565b505050565b60006118308473ffffffffffffffffffffffffffffffffffffffff16611a01565b15611999578373ffffffffffffffffffffffffffffffffffffffff1663150b7a02611859610d57565b8786866040518563ffffffff1660e01b815260040161187b94939291906124ff565b602060405180830381600087803b15801561189557600080fd5b505af19250505080156118c657506040513d601f19601f820116820180604052508101906118c39190611f42565b60015b611949573d80600081146118f6576040519150601f19603f3d011682016040523d82523d6000602084013e6118fb565b606091505b50600081511415611941576040517f08c379a000000000000000000000000000000000000000000000000000000000815260040161193890612588565b60405180910390fd5b805181602001fd5b63150b7a0260e01b7bffffffffffffffffffffffffffffffffffffffffffffffffffffffff1916817bffffffffffffffffffffffffffffffffffffffffffffffffffffffff19161491505061199e565b600190505b949350505050565b6119b08383611a24565b6119bd600084848461180f565b6119fc576040517f08c379a00000000000000000000000000000000000000000000000000000000081526004016119f390612588565b60405180910390fd5b505050565b6000808273ffffffffffffffffffffffffffffffffffffffff163b119050919050565b600073ffffffffffffffffffffffffffffffffffffffff168273ffffffffffffffffffffffffffffffffffffffff161415611a94576040517f08c379a0000000000000000000000000000000000000000000000000000000008152600401611a8b906126e8565b60405180910390fd5b611a9d81610ceb565b15611add576040517f08c379a0000000000000000000000000000000000000000000000000000000008152600401611ad4906125c8565b60405180910390fd5b611ae960008383611805565b6001600360008473ffffffffffffffffffffffffffffffffffffffff1673ffffffffffffffffffffffffffffffffffffffff1681526020019081526020016000206000828254611b399190612871565b92505081905550816002600083815260200190815260200160002060006101000a81548173ffffffffffffffffffffffffffffffffffffffff021916908373ffffffffffffffffffffffffffffffffffffffff160217905550808273ffffffffffffffffffffffffffffffffffffffff16600073ffffffffffffffffffffffffffffffffffffffff167fddf252ad1be2c89b69c2b068fc378daa952ba7f163c4a11628f55a4df523b3ef60405160405180910390a4611bfa6000838361180a565b5050565b828054611c0a90612a3c565b90600052602060002090601f016020900481019282611c2c5760008555611c73565b82601f10611c4557805160ff1916838001178555611c73565b82800160010185558215611c73579182015b82811115611c72578251825591602001919060010190611c57565b5b509050611c809190611c84565b5090565b5b80821115611c9d576000816000905550600101611c85565b5090565b6000611cb4611caf846127e8565b6127c3565b905082815260208101848484011115611ccc57600080fd5b611cd78482856129fa565b509392505050565b600081359050611cee816131f5565b92915050565b600081359050611d038161320c565b92915050565b600081359050611d1881613223565b92915050565b600081519050611d2d81613223565b92915050565b600082601f830112611d4457600080fd5b8135611d54848260208601611ca1565b91505092915050565b600081359050611d6c8161323a565b92915050565b600060208284031215611d8457600080fd5b6000611d9284828501611cdf565b91505092915050565b60008060408385031215611dae57600080fd5b6000611dbc85828601611cdf565b9250506020611dcd85828601611cdf565b9150509250929050565b600080600060608486031215611dec57600080fd5b6000611dfa86828701611cdf565b9350506020611e0b86828701611cdf565b9250506040611e1c86828701611d5d565b9150509250925092565b60008060008060808587031215611e3c57600080fd5b6000611e4a87828801611cdf565b9450506020611e5b87828801611cdf565b9350506040611e6c87828801611d5d565b925050606085013567ffffffffffffffff811115611e8957600080fd5b611e9587828801611d33565b91505092959194509250565b60008060408385031215611eb457600080fd5b6000611ec285828601611cdf565b9250506020611ed385828601611cf4565b9150509250929050565b60008060408385031215611ef057600080fd5b6000611efe85828601611cdf565b9250506020611f0f85828601611d5d565b9150509250929050565b600060208284031215611f2b57600080fd5b6000611f3984828501611d09565b91505092915050565b600060208284031215611f5457600080fd5b6000611f6284828501611d1e565b91505092915050565b600060208284031215611f7d57600080fd5b6000611f8b84828501611d5d565b91505092915050565b611f9d81612986565b82525050565b611fac81612998565b82525050565b6000611fbd8261282e565b611fc78185612844565b9350611fd7818560208601612a09565b611fe081612bd5565b840191505092915050565b6000611ff682612839565b6120008185612855565b9350612010818560208601612a09565b61201981612bd5565b840191505092915050565b600061202f82612839565b6120398185612866565b9350612049818560208601612a09565b80840191505092915050565b6000815461206281612a3c565b61206c8186612866565b945060018216600081146120875760018114612098576120cb565b60ff198316865281860193506120cb565b6120a185612819565b60005b838110156120c3578154818901526001820191506020810190506120a4565b838801955050505b50505092915050565b60006120e1603283612855565b91506120ec82612be6565b604082019050919050565b6000612104602583612855565b915061210f82612c35565b604082019050919050565b6000612127601c83612855565b915061213282612c84565b602082019050919050565b600061214a602483612855565b915061215582612cad565b604082019050919050565b600061216d601983612855565b915061217882612cfc565b602082019050919050565b6000612190606383612866565b915061219b82612d25565b606382019050919050565b60006121b3600d83612855565b91506121be82612dc0565b602082019050919050565b60006121d6602c83612855565b91506121e182612de9565b604082019050919050565b60006121f9600d83612866565b915061220482612e38565b600d82019050919050565b600061221c603883612855565b915061222782612e61565b604082019050919050565b600061223f602a83612855565b915061224a82612eb0565b604082019050919050565b6000612262602983612855565b915061226d82612eff565b604082019050919050565b6000612285600483612866565b915061229082612f4e565b600482019050919050565b60006122a8602e83612855565b91506122b382612f77565b604082019050919050565b60006122cb600283612866565b91506122d682612fc6565b600282019050919050565b60006122ee602083612855565b91506122f982612fef565b602082019050919050565b6000612311603183612855565b915061231c82613018565b604082019050919050565b6000612334602c83612855565b915061233f82613067565b604082019050919050565b6000612357602f83612855565b9150612362826130b6565b604082019050919050565b600061237a600a83612866565b915061238582613105565b600a82019050919050565b600061239d602183612855565b91506123a88261312e565b604082019050919050565b60006123c0601d83612866565b91506123cb8261317d565b601d82019050919050565b60006123e3603183612855565b91506123ee826131a6565b604082019050919050565b612402816129f0565b82525050565b60006124148285612024565b91506124208284612024565b91508190509392505050565b60006124388285612055565b91506124448284612024565b915061244f826121ec565b91508190509392505050565b600061246682612278565b91506124728284612024565b915081905092915050565b60006124888261236d565b91506124948285612024565b915061249f82612183565b91506124ab8284612024565b91506124b6826122be565b91508190509392505050565b60006124cd826123b3565b91506124d98284612024565b915081905092915050565b60006020820190506124f96000830184611f94565b92915050565b60006080820190506125146000830187611f94565b6125216020830186611f94565b61252e60408301856123f9565b81810360608301526125408184611fb2565b905095945050505050565b60006020820190506125606000830184611fa3565b92915050565b600060208201905081810360008301526125808184611feb565b905092915050565b600060208201905081810360008301526125a1816120d4565b9050919050565b600060208201905081810360008301526125c1816120f7565b9050919050565b600060208201905081810360008301526125e18161211a565b9050919050565b600060208201905081810360008301526126018161213d565b9050919050565b6000602082019050818103600083015261262181612160565b9050919050565b60006020820190508181036000830152612641816121a6565b9050919050565b60006020820190508181036000830152612661816121c9565b9050919050565b600060208201905081810360008301526126818161220f565b9050919050565b600060208201905081810360008301526126a181612232565b9050919050565b600060208201905081810360008301526126c181612255565b9050919050565b600060208201905081810360008301526126e18161229b565b9050919050565b60006020820190508181036000830152612701816122e1565b9050919050565b6000602082019050818103600083015261272181612304565b9050919050565b6000602082019050818103600083015261274181612327565b9050919050565b600060208201905081810360008301526127618161234a565b9050919050565b6000602082019050818103600083015261278181612390565b9050919050565b600060208201905081810360008301526127a1816123d6565b9050919050565b60006020820190506127bd60008301846123f9565b92915050565b60006127cd6127de565b90506127d98282612a6e565b919050565b6000604051905090565b600067ffffffffffffffff82111561280357612802612ba6565b5b61280c82612bd5565b9050602081019050919050565b60008190508160005260206000209050919050565b600081519050919050565b600081519050919050565b600082825260208201905092915050565b600082825260208201905092915050565b600081905092915050565b600061287c826129f0565b9150612887836129f0565b9250827fffffffffffffffffffffffffffffffffffffffffffffffffffffffffffffffff038211156128bc576128bb612b19565b5b828201905092915050565b60006128d2826129f0565b91506128dd836129f0565b9250826128ed576128ec612b48565b5b828204905092915050565b6000612903826129f0565b915061290e836129f0565b9250817fffffffffffffffffffffffffffffffffffffffffffffffffffffffffffffffff048311821515161561294757612946612b19565b5b828202905092915050565b600061295d826129f0565b9150612968836129f0565b92508282101561297b5761297a612b19565b5b828203905092915050565b6000612991826129d0565b9050919050565b60008115159050919050565b60007fffffffff0000000000000000000000000000000000000000000000000000000082169050919050565b600073ffffffffffffffffffffffffffffffffffffffff82169050919050565b6000819050919050565b82818337600083830152505050565b60005b83811015612a27578082015181840152602081019050612a0c565b83811115612a36576000848401525b50505050565b60006002820490506001821680612a5457607f821691505b60208210811415612a6857612a67612b77565b5b50919050565b612a7782612bd5565b810181811067ffffffffffffffff82111715612a9657612a95612ba6565b5b80604052505050565b6000612aaa826129f0565b91507fffffffffffffffffffffffffffffffffffffffffffffffffffffffffffffffff821415612add57612adc612b19565b5b600182019050919050565b6000612af3826129f0565b9150612afe836129f0565b925082612b0e57612b0d612b48565b5b828206905092915050565b7f4e487b7100000000000000000000000000000000000000000000000000000000600052601160045260246000fd5b7f4e487b7100000000000000000000000000000000000000000000000000000000600052601260045260246000fd5b7f4e487b7100000000000000000000000000000000000000000000000000000000600052602260045260246000fd5b7f4e487b7100000000000000000000000000000000000000000000000000000000600052604160045260246000fd5b6000601f19601f8301169050919050565b7f4552433732313a207472616e7366657220746f206e6f6e20455243373231526560008201527f63656976657220696d706c656d656e7465720000000000000000000000000000602082015250565b7f4552433732313a207472616e736665722066726f6d20696e636f72726563742060008201527f6f776e6572000000000000000000000000000000000000000000000000000000602082015250565b7f4552433732313a20746f6b656e20616c7265616479206d696e74656400000000600082015250565b7f4552433732313a207472616e7366657220746f20746865207a65726f2061646460008201527f7265737300000000000000000000000000000000000000000000000000000000602082015250565b7f4552433732313a20617070726f766520746f2063616c6c657200000000000000600082015250565b7f222c20226465736372697074696f6e223a20224120686967686c79206163636c60008201527f61696d656420636f6c6c656374696f6e206f6620737175617265732e222c202260208201527f696d616765223a2022646174613a696d6167652f7376672b786d6c3b6261736560408201527f36342c0000000000000000000000000000000000000000000000000000000000606082015250565b7f4c696d6974207265616368656400000000000000000000000000000000000000600082015250565b7f4552433732313a206f70657261746f7220717565727920666f72206e6f6e657860008201527f697374656e7420746f6b656e0000000000000000000000000000000000000000602082015250565b7f3c2f746578743e3c2f7376673e00000000000000000000000000000000000000600082015250565b7f4552433732313a20617070726f76652063616c6c6572206973206e6f74206f7760008201527f6e6572206e6f7220617070726f76656420666f7220616c6c0000000000000000602082015250565b7f4552433732313a2062616c616e636520717565727920666f7220746865207a6560008201527f726f206164647265737300000000000000000000000000000000000000000000602082015250565b7f4552433732313a206f776e657220717565727920666f72206e6f6e657869737460008201527f656e7420746f6b656e0000000000000000000000000000000000000000000000602082015250565b7f5468652000000000000000000000000000000000000000000000000000000000600082015250565b7f45524337323155524953746f726167653a2055524920736574206f66206e6f6e60008201527f6578697374656e7420746f6b656e000000000000000000000000000000000000602082015250565b7f227d000000000000000000000000000000000000000000000000000000000000600082015250565b7f4552433732313a206d696e7420746f20746865207a65726f2061646472657373600082015250565b7f45524337323155524953746f726167653a2055524920717565727920666f722060008201527f6e6f6e6578697374656e7420746f6b656e000000000000000000000000000000602082015250565b7f4552433732313a20617070726f76656420717565727920666f72206e6f6e657860008201527f697374656e7420746f6b656e0000000000000000000000000000000000000000602082015250565b7f4552433732314d657461646174613a2055524920717565727920666f72206e6f60008201527f6e6578697374656e7420746f6b656e0000000000000000000000000000000000602082015250565b7f7b226e616d65223a202200000000000000000000000000000000000000000000600082015250565b7f4552433732313a20617070726f76616c20746f2063757272656e74206f776e6560008201527f7200000000000000000000000000000000000000000000000000000000000000602082015250565b7f646174613a6170706c69636174696f6e2f6a736f6e3b6261736536342c000000600082015250565b7f4552433732313a207472616e736665722063616c6c6572206973206e6f74206f60008201527f776e6572206e6f7220617070726f766564000000000000000000000000000000602082015250565b6131fe81612986565b811461320957600080fd5b50565b61321581612998565b811461322057600080fd5b50565b61322c816129a4565b811461323757600080fd5b50565b613243816129f0565b811461324e57600080fd5b5056fe4142434445464748494a4b4c4d4e4f505152535455565758595a6162636465666768696a6b6c6d6e6f707172737475767778797a303132333435363738392b2fa2646970667358221220e77a2dc5d30d58cb6a600632596bcab2eac982eecbfee38e07e0714c76612d2164736f6c634300080400333c73766720786d6c6e733d27687474703a2f2f7777772e77332e6f72672f323030302f73766727207072657365727665417370656374526174696f3d27784d696e594d696e206d656574272076696577426f783d273020302033353020333530273e3c7374796c653e2e62617365207b2066696c6c3a2077686974653b20666f6e742d66616d696c793a2073657269663b20666f6e742d73697a653a20323470783b207d3c2f7374796c653e3c726563742077696474683d273130302527206865696768743d2731303025272066696c6c3d2762726f776e27202f3e3c7465787420783d273530252720793d273530252720636c6173733d27626173652720646f6d696e616e742d626173656c696e653d276d6964646c652720746578742d616e63686f723d276d6964646c65273e",
  "linkReferences": {},
  "deployedLinkReferences": {}
}