{
  "_format": "hh-sol-artifact-1",
  "contractName": "ImperialToken",
  "sourceName": "contracts/ImperialToken.sol",
  "abi": [
    {
      "inputs": [],
      "stateMutability": "nonpayable",
      "type": "constructor"
    },
    {
      "anonymous": false,
      "inputs": [
        {
          "indexed": true,
          "internalType": "address",
          "name": "owner",
          "type": "address"
        },
        {
          "indexed": true,
          "internalType": "address",
          "name": "approved",
          "type": "address"
        },
        {
          "indexed": true,
          "internalType": "uint256",
          "name": "tokenId",
          "type": "uint256"
        }
      ],
      "name": "Approval",
      "type": "event"
    },
    {
      "anonymous": false,
      "inputs": [
        {
          "indexed": true,
          "internalType": "address",
          "name": "owner",
          "type": "address"
        },
        {
          "indexed": true,
          "internalType": "address",
          "name": "operator",
          "type": "address"
        },
        {
          "indexed": false,
          "internalType": "bool",
          "name": "approved",
          "type": "bool"
        }
      ],
      "name": "ApprovalForAll",
      "type": "event"
    },
    {
      "anonymous": false,
      "inputs": [
        {
          "indexed": true,
          "internalType": "address",
          "name": "sender",
          "type": "address"
        },
        {
          "indexed": false,
          "internalType": "uint256",
          "name": "tokenId",
          "type": "uint256"
        }
      ],
      "name": "NewTokenEvent",
      "type": "event"
    },
    {
      "anonymous": false,
      "inputs": [
        {
          "indexed": true,
          "internalType": "address",
          "name": "from",
          "type": "address"
        },
        {
          "indexed": true,
          "internalType": "address",
          "name": "to",
          "type": "address"
        },
        {
          "indexed": true,
          "internalType": "uint256",
          "name": "tokenId",
          "type": "uint256"
        }
      ],
      "name": "Transfer",
      "type": "event"
    },
    {
      "inputs": [
        {
          "internalType": "address",
          "name": "to",
          "type": "address"
        },
        {
          "internalType": "uint256",
          "name": "tokenId",
          "type": "uint256"
        }
      ],
      "name": "approve",
      "outputs": [],
      "stateMutability": "nonpayable",
      "type": "function"
    },
    {
      "inputs": [
        {
          "internalType": "address",
          "name": "owner",
          "type": "address"
        }
      ],
      "name": "balanceOf",
      "outputs": [
        {
          "internalType": "uint256",
          "name": "",
          "type": "uint256"
        }
      ],
      "stateMutability": "view",
      "type": "function"
    },
    {
      "inputs": [
        {
          "internalType": "uint256",
          "name": "tokenId",
          "type": "uint256"
        }
      ],
      "name": "getApproved",
      "outputs": [
        {
          "internalType": "address",
          "name": "",
          "type": "address"
        }
      ],
      "stateMutability": "view",
      "type": "function"
    },
    {
      "inputs": [],
      "name": "getTotalSupply",
      "outputs": [
        {
          "internalType": "uint256",
          "name": "",
          "type": "uint256"
        }
      ],
      "stateMutability": "view",
      "type": "function"
    },
    {
      "inputs": [
        {
          "internalType": "address",
          "name": "owner",
          "type": "address"
        },
        {
          "internalType": "address",
          "name": "operator",
          "type": "address"
        }
      ],
      "name": "isApprovedForAll",
      "outputs": [
        {
          "internalType": "bool",
          "name": "",
          "type": "bool"
        }
      ],
      "stateMutability": "view",
      "type": "function"
    },
    {
      "inputs": [],
      "name": "makeAnNFT",
      "outputs": [],
      "stateMutability": "nonpayable",
      "type": "function"
    },
    {
      "inputs": [],
      "name": "name",
      "outputs": [
        {
          "internalType": "string",
          "name": "",
          "type": "string"
        }
      ],
      "stateMutability": "view",
      "type": "function"
    },
    {
      "inputs": [
        {
          "internalType": "uint256",
          "name": "tokenId",
          "type": "uint256"
        }
      ],
      "name": "ownerOf",
      "outputs": [
        {
          "internalType": "address",
          "name": "",
          "type": "address"
        }
      ],
      "stateMutability": "view",
      "type": "function"
    },
    {
      "inputs": [
        {
          "internalType": "address",
          "name": "from",
          "type": "address"
        },
        {
          "internalType": "address",
          "name": "to",
          "type": "address"
        },
        {
          "internalType": "uint256",
          "name": "tokenId",
          "type": "uint256"
        }
      ],
      "name": "safeTransferFrom",
      "outputs": [],
      "stateMutability": "nonpayable",
      "type": "function"
    },
    {
      "inputs": [
        {
          "internalType": "address",
          "name": "from",
          "type": "address"
        },
        {
          "internalType": "address",
          "name": "to",
          "type": "address"
        },
        {
          "internalType": "uint256",
          "name": "tokenId",
          "type": "uint256"
        },
        {
          "internalType": "bytes",
          "name": "_data",
          "type": "bytes"
        }
      ],
      "name": "safeTransferFrom",
      "outputs": [],
      "stateMutability": "nonpayable",
      "type": "function"
    },
    {
      "inputs": [
        {
          "internalType": "address",
          "name": "operator",
          "type": "address"
        },
        {
          "internalType": "bool",
          "name": "approved",
          "type": "bool"
        }
      ],
      "name": "setApprovalForAll",
      "outputs": [],
      "stateMutability": "nonpayable",
      "type": "function"
    },
    {
      "inputs": [
        {
          "internalType": "bytes4",
          "name": "interfaceId",
          "type": "bytes4"
        }
      ],
      "name": "supportsInterface",
      "outputs": [
        {
          "internalType": "bool",
          "name": "",
          "type": "bool"
        }
      ],
      "stateMutability": "view",
      "type": "function"
    },
    {
      "inputs": [],
      "name": "symbol",
      "outputs": [
        {
          "internalType": "string",
          "name": "",
          "type": "string"
        }
      ],
      "stateMutability": "view",
      "type": "function"
    },
    {
      "inputs": [
        {
          "internalType": "uint256",
          "name": "tokenId",
          "type": "uint256"
        }
      ],
      "name": "tokenURI",
      "outputs": [
        {
          "internalType": "string",
          "name": "",
          "type": "string"
        }
      ],
      "stateMutability": "view",
      "type": "function"
    },
    {
      "inputs": [
        {
          "internalType": "address",
          "name": "from",
          "type": "address"
        },
        {
          "internalType": "address",
          "name": "to",
          "type": "address"
        },
        {
          "internalType": "uint256",
          "name": "tokenId",
          "type": "uint256"
        }
      ],
      "name": "transferFrom",
      "outputs": [],
      "stateMutability": "nonpayable",
      "type": "function"
    }
  ],
  "bytecode": "0x60806040523480156200001157600080fd5b506040518060400160405280600d81526020017f496d70657269616c546f6b656e000000000000000000000000000000000000008152506040518060400160405280600381526020017f494d500000000000000000000000000000000000000000000000000000000000815250816000908051906020019062000096929190620000b8565b508060019080519060200190620000af929190620000b8565b505050620001cd565b828054620000c69062000168565b90600052602060002090601f016020900481019282620000ea576000855562000136565b82601f106200010557805160ff191683800117855562000136565b8280016001018555821562000136579182015b828111156200013557825182559160200191906001019062000118565b5b50905062000145919062000149565b5090565b5b80821115620001645760008160009055506001016200014a565b5090565b600060028204905060018216806200018157607f821691505b602082108114156200019857620001976200019e565b5b50919050565b7f4e487b7100000000000000000000000000000000000000000000000000000000600052602260045260246000fd5b61312680620001dd6000396000f3fe608060405234801561001057600080fd5b50600436106100f55760003560e01c806370a0823111610097578063c4e41b2211610066578063c4e41b2214610282578063c87b56dd146102a0578063e4d098e1146102d0578063e985e9c5146102da576100f5565b806370a08231146101fc57806395d89b411461022c578063a22cb4651461024a578063b88d4fde14610266576100f5565b8063095ea7b3116100d3578063095ea7b31461017857806323b872dd1461019457806342842e0e146101b05780636352211e146101cc576100f5565b806301ffc9a7146100fa57806306fdde031461012a578063081812fc14610148575b600080fd5b610114600480360381019061010f9190611eb8565b61030a565b60405161012191906123e8565b60405180910390f35b6101326103ec565b60405161013f9190612403565b60405180910390f35b610162600480360381019061015d9190611f0a565b61047e565b60405161016f9190612381565b60405180910390f35b610192600480360381019061018d9190611e7c565b610503565b005b6101ae60048036038101906101a99190611d76565b61061b565b005b6101ca60048036038101906101c59190611d76565b61067b565b005b6101e660048036038101906101e19190611f0a565b61069b565b6040516101f39190612381565b60405180910390f35b61021660048036038101906102119190611d11565b61074d565b6040516102239190612645565b60405180910390f35b610234610805565b6040516102419190612403565b60405180910390f35b610264600480360381019061025f9190611e40565b610897565b005b610280600480360381019061027b9190611dc5565b6108ad565b005b61028a61090f565b6040516102979190612645565b60405180910390f35b6102ba60048036038101906102b59190611f0a565b610920565b6040516102c79190612403565b60405180910390f35b6102d8610a72565b005b6102f460048036038101906102ef9190611d3a565b610b8c565b60405161030191906123e8565b60405180910390f35b60007f80ac58cd000000000000000000000000000000000000000000000000000000007bffffffffffffffffffffffffffffffffffffffffffffffffffffffff1916827bffffffffffffffffffffffffffffffffffffffffffffffffffffffff191614806103d557507f5b5e139f000000000000000000000000000000000000000000000000000000007bffffffffffffffffffffffffffffffffffffffffffffffffffffffff1916827bffffffffffffffffffffffffffffffffffffffffffffffffffffffff1916145b806103e557506103e482610c20565b5b9050919050565b6060600080546103fb906128c4565b80601f0160208091040260200160405190810160405280929190818152602001828054610427906128c4565b80156104745780601f1061044957610100808354040283529160200191610474565b820191906000526020600020905b81548152906001019060200180831161045757829003601f168201915b5050505050905090565b600061048982610c8a565b6104c8576040517f08c379a00000000000000000000000000000000000000000000000000000000081526004016104bf906125c5565b60405180910390fd5b6004600083815260200190815260200160002060009054906101000a900473ffffffffffffffffffffffffffffffffffffffff169050919050565b600061050e8261069b565b90508073ffffffffffffffffffffffffffffffffffffffff168373ffffffffffffffffffffffffffffffffffffffff16141561057f576040517f08c379a000000000000000000000000000000000000000000000000000000000815260040161057690612605565b60405180910390fd5b8073ffffffffffffffffffffffffffffffffffffffff1661059e610cf6565b73ffffffffffffffffffffffffffffffffffffffff1614806105cd57506105cc816105c7610cf6565b610b8c565b5b61060c576040517f08c379a000000000000000000000000000000000000000000000000000000000815260040161060390612505565b60405180910390fd5b6106168383610cfe565b505050565b61062c610626610cf6565b82610db7565b61066b576040517f08c379a000000000000000000000000000000000000000000000000000000000815260040161066290612625565b60405180910390fd5b610676838383610e95565b505050565b610696838383604051806020016040528060008152506108ad565b505050565b6000806002600084815260200190815260200160002060009054906101000a900473ffffffffffffffffffffffffffffffffffffffff169050600073ffffffffffffffffffffffffffffffffffffffff168173ffffffffffffffffffffffffffffffffffffffff161415610744576040517f08c379a000000000000000000000000000000000000000000000000000000000815260040161073b90612545565b60405180910390fd5b80915050919050565b60008073ffffffffffffffffffffffffffffffffffffffff168273ffffffffffffffffffffffffffffffffffffffff1614156107be576040517f08c379a00000000000000000000000000000000000000000000000000000000081526004016107b590612525565b60405180910390fd5b600360008373ffffffffffffffffffffffffffffffffffffffff1673ffffffffffffffffffffffffffffffffffffffff168152602001908152602001600020549050919050565b606060018054610814906128c4565b80601f0160208091040260200160405190810160405280929190818152602001828054610840906128c4565b801561088d5780601f106108625761010080835404028352916020019161088d565b820191906000526020600020905b81548152906001019060200180831161087057829003601f168201915b5050505050905090565b6108a96108a2610cf6565b83836110fc565b5050565b6108be6108b8610cf6565b83610db7565b6108fd576040517f08c379a00000000000000000000000000000000000000000000000000000000081526004016108f490612625565b60405180910390fd5b61090984848484611269565b50505050565b600061091b60076112c5565b905090565b606061092b82610c8a565b61096a576040517f08c379a0000000000000000000000000000000000000000000000000000000008152600401610961906125a5565b60405180910390fd5b600060066000848152602001908152602001600020805461098a906128c4565b80601f01602080910402602001604051908101604052809291908181526020018280546109b6906128c4565b8015610a035780601f106109d857610100808354040283529160200191610a03565b820191906000526020600020905b8154815290600101906020018083116109e657829003601f168201915b505050505090506000610a146112d3565b9050600081511415610a2a578192505050610a6d565b600082511115610a5f578082604051602001610a47929190612305565b60405160208183030381529060405292505050610a6d565b610a68846112ea565b925050505b919050565b6032610a7e60076112c5565b1115610abf576040517f08c379a0000000000000000000000000000000000000000000000000000000008152600401610ab6906124c5565b60405180910390fd5b6000610acb60076112c5565b90506000610af5604051602001610ae190612329565b604051602081830303815290604052611391565b9050600081604051602001610b0a919061235f565b6040516020818303038152906040529050610b25338461154f565b610b2f838261156d565b610b3960076115e1565b3373ffffffffffffffffffffffffffffffffffffffff167f5f798757cbe0f16e7270bbb4823573adf7c4ae480b5a6428dd9be62a06048d5784604051610b7f9190612645565b60405180910390a2505050565b6000600560008473ffffffffffffffffffffffffffffffffffffffff1673ffffffffffffffffffffffffffffffffffffffff16815260200190815260200160002060008373ffffffffffffffffffffffffffffffffffffffff1673ffffffffffffffffffffffffffffffffffffffff16815260200190815260200160002060009054906101000a900460ff16905092915050565b60007f01ffc9a7000000000000000000000000000000000000000000000000000000007bffffffffffffffffffffffffffffffffffffffffffffffffffffffff1916827bffffffffffffffffffffffffffffffffffffffffffffffffffffffff1916149050919050565b60008073ffffffffffffffffffffffffffffffffffffffff166002600084815260200190815260200160002060009054906101000a900473ffffffffffffffffffffffffffffffffffffffff1673ffffffffffffffffffffffffffffffffffffffff1614159050919050565b600033905090565b816004600083815260200190815260200160002060006101000a81548173ffffffffffffffffffffffffffffffffffffffff021916908373ffffffffffffffffffffffffffffffffffffffff160217905550808273ffffffffffffffffffffffffffffffffffffffff16610d718361069b565b73ffffffffffffffffffffffffffffffffffffffff167f8c5be1e5ebec7d5bd14f71427d1e84f3dd0314c0f7b2291e5b200ac8c7c3b92560405160405180910390a45050565b6000610dc282610c8a565b610e01576040517f08c379a0000000000000000000000000000000000000000000000000000000008152600401610df8906124e5565b60405180910390fd5b6000610e0c8361069b565b90508073ffffffffffffffffffffffffffffffffffffffff168473ffffffffffffffffffffffffffffffffffffffff161480610e4e5750610e4d8185610b8c565b5b80610e8c57508373ffffffffffffffffffffffffffffffffffffffff16610e748461047e565b73ffffffffffffffffffffffffffffffffffffffff16145b91505092915050565b8273ffffffffffffffffffffffffffffffffffffffff16610eb58261069b565b73ffffffffffffffffffffffffffffffffffffffff1614610f0b576040517f08c379a0000000000000000000000000000000000000000000000000000000008152600401610f0290612445565b60405180910390fd5b600073ffffffffffffffffffffffffffffffffffffffff168273ffffffffffffffffffffffffffffffffffffffff161415610f7b576040517f08c379a0000000000000000000000000000000000000000000000000000000008152600401610f7290612485565b60405180910390fd5b610f868383836115f7565b610f91600082610cfe565b6001600360008573ffffffffffffffffffffffffffffffffffffffff1673ffffffffffffffffffffffffffffffffffffffff1681526020019081526020016000206000828254610fe191906127da565b925050819055506001600360008473ffffffffffffffffffffffffffffffffffffffff1673ffffffffffffffffffffffffffffffffffffffff168152602001908152602001600020600082825461103891906126f9565b92505081905550816002600083815260200190815260200160002060006101000a81548173ffffffffffffffffffffffffffffffffffffffff021916908373ffffffffffffffffffffffffffffffffffffffff160217905550808273ffffffffffffffffffffffffffffffffffffffff168473ffffffffffffffffffffffffffffffffffffffff167fddf252ad1be2c89b69c2b068fc378daa952ba7f163c4a11628f55a4df523b3ef60405160405180910390a46110f78383836115fc565b505050565b8173ffffffffffffffffffffffffffffffffffffffff168373ffffffffffffffffffffffffffffffffffffffff16141561116b576040517f08c379a0000000000000000000000000000000000000000000000000000000008152600401611162906124a5565b60405180910390fd5b80600560008573ffffffffffffffffffffffffffffffffffffffff1673ffffffffffffffffffffffffffffffffffffffff16815260200190815260200160002060008473ffffffffffffffffffffffffffffffffffffffff1673ffffffffffffffffffffffffffffffffffffffff16815260200190815260200160002060006101000a81548160ff0219169083151502179055508173ffffffffffffffffffffffffffffffffffffffff168373ffffffffffffffffffffffffffffffffffffffff167f17307eab39ab6107e8899845ad3d59bd9653f200f220920489ca2b5937696c318360405161125c91906123e8565b60405180910390a3505050565b611274848484610e95565b61128084848484611601565b6112bf576040517f08c379a00000000000000000000000000000000000000000000000000000000081526004016112b690612425565b60405180910390fd5b50505050565b600081600001549050919050565b606060405180602001604052806000815250905090565b60606112f582610c8a565b611334576040517f08c379a000000000000000000000000000000000000000000000000000000000815260040161132b906125e5565b60405180910390fd5b600061133e6112d3565b9050600081511161135e5760405180602001604052806000815250611389565b8061136884611798565b604051602001611379929190612305565b6040516020818303038152906040525b915050919050565b606060008251905060008114156113ba576040518060200160405280600081525091505061154a565b600060036002836113cb91906126f9565b6113d5919061274f565b60046113e19190612780565b905060006020826113f291906126f9565b67ffffffffffffffff811115611431577f4e487b7100000000000000000000000000000000000000000000000000000000600052604160045260246000fd5b6040519080825280601f01601f1916602001820160405280156114635781602001600182028036833780820191505090505b50905060006040518060600160405280604081526020016130b1604091399050600181016020830160005b868110156115075760038101905062ffffff818a015116603f8160121c168401518060081b905060ff603f83600c1c1686015116810190508060081b905060ff603f8360061c1686015116810190508060081b905060ff603f831686015116810190508060e01b9050808452600484019350505061148e565b50600386066001811461152157600281146115315761153c565b613d3d60f01b600283035261153c565b603d60f81b60018303525b508484525050819450505050505b919050565b611569828260405180602001604052806000815250611945565b5050565b61157682610c8a565b6115b5576040517f08c379a00000000000000000000000000000000000000000000000000000000081526004016115ac90612565565b60405180910390fd5b806006600084815260200190815260200160002090805190602001906115dc929190611b9d565b505050565b6001816000016000828254019250508190555050565b505050565b505050565b60006116228473ffffffffffffffffffffffffffffffffffffffff166119a0565b1561178b578373ffffffffffffffffffffffffffffffffffffffff1663150b7a0261164b610cf6565b8786866040518563ffffffff1660e01b815260040161166d949392919061239c565b602060405180830381600087803b15801561168757600080fd5b505af19250505080156116b857506040513d601f19601f820116820180604052508101906116b59190611ee1565b60015b61173b573d80600081146116e8576040519150601f19603f3d011682016040523d82523d6000602084013e6116ed565b606091505b50600081511415611733576040517f08c379a000000000000000000000000000000000000000000000000000000000815260040161172a90612425565b60405180910390fd5b805181602001fd5b63150b7a0260e01b7bffffffffffffffffffffffffffffffffffffffffffffffffffffffff1916817bffffffffffffffffffffffffffffffffffffffffffffffffffffffff191614915050611790565b600190505b949350505050565b606060008214156117e0576040518060400160405280600181526020017f30000000000000000000000000000000000000000000000000000000000000008152509050611940565b600082905060005b600082146118125780806117fb90612927565b915050600a8261180b919061274f565b91506117e8565b60008167ffffffffffffffff811115611854577f4e487b7100000000000000000000000000000000000000000000000000000000600052604160045260246000fd5b6040519080825280601f01601f1916602001820160405280156118865781602001600182028036833780820191505090505b5090505b600085146119395760018261189f91906127da565b9150600a856118ae9190612970565b60306118ba91906126f9565b60f81b8183815181106118f6577f4e487b7100000000000000000000000000000000000000000000000000000000600052603260045260246000fd5b60200101907effffffffffffffffffffffffffffffffffffffffffffffffffffffffffffff1916908160001a905350600a85611932919061274f565b945061188a565b8093505050505b919050565b61194f83836119c3565b61195c6000848484611601565b61199b576040517f08c379a000000000000000000000000000000000000000000000000000000000815260040161199290612425565b60405180910390fd5b505050565b6000808273ffffffffffffffffffffffffffffffffffffffff163b119050919050565b600073ffffffffffffffffffffffffffffffffffffffff168273ffffffffffffffffffffffffffffffffffffffff161415611a33576040517f08c379a0000000000000000000000000000000000000000000000000000000008152600401611a2a90612585565b60405180910390fd5b611a3c81610c8a565b15611a7c576040517f08c379a0000000000000000000000000000000000000000000000000000000008152600401611a7390612465565b60405180910390fd5b611a88600083836115f7565b6001600360008473ffffffffffffffffffffffffffffffffffffffff1673ffffffffffffffffffffffffffffffffffffffff1681526020019081526020016000206000828254611ad891906126f9565b92505081905550816002600083815260200190815260200160002060006101000a81548173ffffffffffffffffffffffffffffffffffffffff021916908373ffffffffffffffffffffffffffffffffffffffff160217905550808273ffffffffffffffffffffffffffffffffffffffff16600073ffffffffffffffffffffffffffffffffffffffff167fddf252ad1be2c89b69c2b068fc378daa952ba7f163c4a11628f55a4df523b3ef60405160405180910390a4611b99600083836115fc565b5050565b828054611ba9906128c4565b90600052602060002090601f016020900481019282611bcb5760008555611c12565b82601f10611be457805160ff1916838001178555611c12565b82800160010185558215611c12579182015b82811115611c11578251825591602001919060010190611bf6565b5b509050611c1f9190611c23565b5090565b5b80821115611c3c576000816000905550600101611c24565b5090565b6000611c53611c4e84612685565b612660565b905082815260208101848484011115611c6b57600080fd5b611c76848285612882565b509392505050565b600081359050611c8d81613054565b92915050565b600081359050611ca28161306b565b92915050565b600081359050611cb781613082565b92915050565b600081519050611ccc81613082565b92915050565b600082601f830112611ce357600080fd5b8135611cf3848260208601611c40565b91505092915050565b600081359050611d0b81613099565b92915050565b600060208284031215611d2357600080fd5b6000611d3184828501611c7e565b91505092915050565b60008060408385031215611d4d57600080fd5b6000611d5b85828601611c7e565b9250506020611d6c85828601611c7e565b9150509250929050565b600080600060608486031215611d8b57600080fd5b6000611d9986828701611c7e565b9350506020611daa86828701611c7e565b9250506040611dbb86828701611cfc565b9150509250925092565b60008060008060808587031215611ddb57600080fd5b6000611de987828801611c7e565b9450506020611dfa87828801611c7e565b9350506040611e0b87828801611cfc565b925050606085013567ffffffffffffffff811115611e2857600080fd5b611e3487828801611cd2565b91505092959194509250565b60008060408385031215611e5357600080fd5b6000611e6185828601611c7e565b9250506020611e7285828601611c93565b9150509250929050565b60008060408385031215611e8f57600080fd5b6000611e9d85828601611c7e565b9250506020611eae85828601611cfc565b9150509250929050565b600060208284031215611eca57600080fd5b6000611ed884828501611ca8565b91505092915050565b600060208284031215611ef357600080fd5b6000611f0184828501611cbd565b91505092915050565b600060208284031215611f1c57600080fd5b6000611f2a84828501611cfc565b91505092915050565b611f3c8161280e565b82525050565b611f4b81612820565b82525050565b6000611f5c826126b6565b611f6681856126cc565b9350611f76818560208601612891565b611f7f81612a5d565b840191505092915050565b6000611f95826126c1565b611f9f81856126dd565b9350611faf818560208601612891565b611fb881612a5d565b840191505092915050565b6000611fce826126c1565b611fd881856126ee565b9350611fe8818560208601612891565b80840191505092915050565b60006120016042836126ee565b915061200c82612a6e565b604282019050919050565b60006120246032836126dd565b915061202f82612ae3565b604082019050919050565b60006120476025836126dd565b915061205282612b32565b604082019050919050565b600061206a601c836126dd565b915061207582612b81565b602082019050919050565b600061208d603b836126ee565b915061209882612baa565b603b82019050919050565b60006120b06024836126dd565b91506120bb82612bf9565b604082019050919050565b60006120d36019836126dd565b91506120de82612c48565b602082019050919050565b60006120f6600d836126dd565b915061210182612c71565b602082019050919050565b6000612119602c836126dd565b915061212482612c9a565b604082019050919050565b600061213c6038836126dd565b915061214782612ce9565b604082019050919050565b600061215f602a836126dd565b915061216a82612d38565b604082019050919050565b60006121826029836126dd565b915061218d82612d87565b604082019050919050565b60006121a5602e836126dd565b91506121b082612dd6565b604082019050919050565b60006121c86020836126dd565b91506121d382612e25565b602082019050919050565b60006121eb6031836126dd565b91506121f682612e4e565b604082019050919050565b600061220e602c836126dd565b915061221982612e9d565b604082019050919050565b6000612231602f836126dd565b915061223c82612eec565b604082019050919050565b60006122546001836126ee565b915061225f82612f3b565b600182019050919050565b60006122776021836126dd565b915061228282612f64565b604082019050919050565b600061229a601d836126ee565b91506122a582612fb3565b601d82019050919050565b60006122bd6031836126dd565b91506122c882612fdc565b604082019050919050565b60006122e06012836126ee565b91506122eb8261302b565b601282019050919050565b6122ff81612878565b82525050565b60006123118285611fc3565b915061231d8284611fc3565b91508190509392505050565b600061233482612247565b915061233f826122d3565b915061234a82612080565b915061235582611ff4565b9150819050919050565b600061236a8261228d565b91506123768284611fc3565b915081905092915050565b60006020820190506123966000830184611f33565b92915050565b60006080820190506123b16000830187611f33565b6123be6020830186611f33565b6123cb60408301856122f6565b81810360608301526123dd8184611f51565b905095945050505050565b60006020820190506123fd6000830184611f42565b92915050565b6000602082019050818103600083015261241d8184611f8a565b905092915050565b6000602082019050818103600083015261243e81612017565b9050919050565b6000602082019050818103600083015261245e8161203a565b9050919050565b6000602082019050818103600083015261247e8161205d565b9050919050565b6000602082019050818103600083015261249e816120a3565b9050919050565b600060208201905081810360008301526124be816120c6565b9050919050565b600060208201905081810360008301526124de816120e9565b9050919050565b600060208201905081810360008301526124fe8161210c565b9050919050565b6000602082019050818103600083015261251e8161212f565b9050919050565b6000602082019050818103600083015261253e81612152565b9050919050565b6000602082019050818103600083015261255e81612175565b9050919050565b6000602082019050818103600083015261257e81612198565b9050919050565b6000602082019050818103600083015261259e816121bb565b9050919050565b600060208201905081810360008301526125be816121de565b9050919050565b600060208201905081810360008301526125de81612201565b9050919050565b600060208201905081810360008301526125fe81612224565b9050919050565b6000602082019050818103600083015261261e8161226a565b9050919050565b6000602082019050818103600083015261263e816122b0565b9050919050565b600060208201905061265a60008301846122f6565b92915050565b600061266a61267b565b905061267682826128f6565b919050565b6000604051905090565b600067ffffffffffffffff8211156126a05761269f612a2e565b5b6126a982612a5d565b9050602081019050919050565b600081519050919050565b600081519050919050565b600082825260208201905092915050565b600082825260208201905092915050565b600081905092915050565b600061270482612878565b915061270f83612878565b9250827fffffffffffffffffffffffffffffffffffffffffffffffffffffffffffffffff03821115612744576127436129a1565b5b828201905092915050565b600061275a82612878565b915061276583612878565b925082612775576127746129d0565b5b828204905092915050565b600061278b82612878565b915061279683612878565b9250817fffffffffffffffffffffffffffffffffffffffffffffffffffffffffffffffff04831182151516156127cf576127ce6129a1565b5b828202905092915050565b60006127e582612878565b91506127f083612878565b925082821015612803576128026129a1565b5b828203905092915050565b600061281982612858565b9050919050565b60008115159050919050565b60007fffffffff0000000000000000000000000000000000000000000000000000000082169050919050565b600073ffffffffffffffffffffffffffffffffffffffff82169050919050565b6000819050919050565b82818337600083830152505050565b60005b838110156128af578082015181840152602081019050612894565b838111156128be576000848401525b50505050565b600060028204905060018216806128dc57607f821691505b602082108114156128f0576128ef6129ff565b5b50919050565b6128ff82612a5d565b810181811067ffffffffffffffff8211171561291e5761291d612a2e565b5b80604052505050565b600061293282612878565b91507fffffffffffffffffffffffffffffffffffffffffffffffffffffffffffffffff821415612965576129646129a1565b5b600182019050919050565b600061297b82612878565b915061298683612878565b925082612996576129956129d0565b5b828206905092915050565b7f4e487b7100000000000000000000000000000000000000000000000000000000600052601160045260246000fd5b7f4e487b7100000000000000000000000000000000000000000000000000000000600052601260045260246000fd5b7f4e487b7100000000000000000000000000000000000000000000000000000000600052602260045260246000fd5b7f4e487b7100000000000000000000000000000000000000000000000000000000600052604160045260246000fd5b6000601f19601f8301169050919050565b7f22696d616765223a2022697066733a2f2f516d617a386f4476414b714a54786f60008201527f4e4b596b6431786a34414a4d3435724e54525644364c5470646b61333367452f60208201527f227d000000000000000000000000000000000000000000000000000000000000604082015250565b7f4552433732313a207472616e7366657220746f206e6f6e20455243373231526560008201527f63656976657220696d706c656d656e7465720000000000000000000000000000602082015250565b7f4552433732313a207472616e736665722066726f6d20696e636f72726563742060008201527f6f776e6572000000000000000000000000000000000000000000000000000000602082015250565b7f4552433732313a20746f6b656e20616c7265616479206d696e74656400000000600082015250565b7f226465736372697074696f6e223a20224120686967686c79206163636c61696d60008201527f656420636f6c6c656374696f6e206f6620737175617265732e222c0000000000602082015250565b7f4552433732313a207472616e7366657220746f20746865207a65726f2061646460008201527f7265737300000000000000000000000000000000000000000000000000000000602082015250565b7f4552433732313a20617070726f766520746f2063616c6c657200000000000000600082015250565b7f4c696d6974207265616368656400000000000000000000000000000000000000600082015250565b7f4552433732313a206f70657261746f7220717565727920666f72206e6f6e657860008201527f697374656e7420746f6b656e0000000000000000000000000000000000000000602082015250565b7f4552433732313a20617070726f76652063616c6c6572206973206e6f74206f7760008201527f6e6572206e6f7220617070726f76656420666f7220616c6c0000000000000000602082015250565b7f4552433732313a2062616c616e636520717565727920666f7220746865207a6560008201527f726f206164647265737300000000000000000000000000000000000000000000602082015250565b7f4552433732313a206f776e657220717565727920666f72206e6f6e657869737460008201527f656e7420746f6b656e0000000000000000000000000000000000000000000000602082015250565b7f45524337323155524953746f726167653a2055524920736574206f66206e6f6e60008201527f6578697374656e7420746f6b656e000000000000000000000000000000000000602082015250565b7f4552433732313a206d696e7420746f20746865207a65726f2061646472657373600082015250565b7f45524337323155524953746f726167653a2055524920717565727920666f722060008201527f6e6f6e6578697374656e7420746f6b656e000000000000000000000000000000602082015250565b7f4552433732313a20617070726f76656420717565727920666f72206e6f6e657860008201527f697374656e7420746f6b656e0000000000000000000000000000000000000000602082015250565b7f4552433732314d657461646174613a2055524920717565727920666f72206e6f60008201527f6e6578697374656e7420746f6b656e0000000000000000000000000000000000602082015250565b7f7b00000000000000000000000000000000000000000000000000000000000000600082015250565b7f4552433732313a20617070726f76616c20746f2063757272656e74206f776e6560008201527f7200000000000000000000000000000000000000000000000000000000000000602082015250565b7f646174613a6170706c69636174696f6e2f6a736f6e3b6261736536342c000000600082015250565b7f4552433732313a207472616e736665722063616c6c6572206973206e6f74206f60008201527f776e6572206e6f7220617070726f766564000000000000000000000000000000602082015250565b7f226e616d65223a2022546865204e4654222c0000000000000000000000000000600082015250565b61305d8161280e565b811461306857600080fd5b50565b61307481612820565b811461307f57600080fd5b50565b61308b8161282c565b811461309657600080fd5b50565b6130a281612878565b81146130ad57600080fd5b5056fe4142434445464748494a4b4c4d4e4f505152535455565758595a6162636465666768696a6b6c6d6e6f707172737475767778797a303132333435363738392b2fa26469706673582212200a9cc273ebda0c04d3d576de6b2669a9f74fd9adf74064227bf7157aa4b82d3564736f6c63430008040033",
  "linkReferences": {},
  "deployedLinkReferences": {}
}